:100000000C9434000C9446000C9446000C9446006A
:100010000C9446000C9446000C9446000C94460048
:100020000C9446000C9446000C9446000C94460038
:100030000C9446000C9446000C9446000C94460028
:100040000C9446000C9446000C9446000C94460018
:100050000C9446000C946A000C9446000C944600E4
:100060000C9446000C94460011241FBECFEFD8E03C
:10007000DEBFCDBF21E0A0E0B1E001C01D92A23003
:10008000B207E1F70E9467000C9488000C9400000E
:10009000ECE7F0E0108280818064808380818F773C
:1000A0008083808180628083EAE7F0E01082808133
:1000B000886080838081876080838081806880837E
:1000C000089586E184B90E944800789408950E94BA
:1000D0006100FFCF1F920F920FB60F9211248F93E2
:1000E0009F93EF93FF938091790090E090930101AB
:1000F00080930001EAE7F0E0808180618083FF91D6
:10010000EF919F918F910F900FBE0F901F901895B8
:04011000F894FFCF91
:00000001FF
