S01700004763634170706C69636174696F6E312E737265635B
S11300000C9434000C9446000C9446000C94460066
S11300100C9446000C9446000C9446000C94460044
S11300200C9446000C9446000C9446000C94460034
S11300300C9446000C9446000C9446000C94460024
S11300400C9446000C9446000C9446000C94460014
S11300500C9446000C9490000C9446000C944600BA
S11300600C9446000C94460011241FBECFEFD8E038
S1130070DEBFCDBF21E0A0E0B1E001C01D92A13000
S1130080B207E1F70E9484000C94AC000C940000C9
S1130090ECE7F0E081E0808380818064808380816C
S11300A08F778083808180628083EAE7F0E010822A
S11300B0808180688083808188608083808187607C
S11300C08083EEE7F0E080818160808380818260BC
S11300D080830895F89484B1886084B9A0EBB0E07B
S11300E01C92E1EBF0E010828C9180688C938C91EF
S11300F083608C938081877F808380818760808305
S11301000E944800789408950E946A00EAE7F0E0AB
S1130110808180648083809100018093B300FBCF51
S11301201F920F920FB60F9211248F93EF93FF93A8
S11301308091790080930001EAE7F0E0808180619A
S11301408083808180648083FF91EF918F910F90F1
S10F01500FBE0F901F901895F894FFCF7D
S9030000FC
